:060000000BC0FECFFDCF96
:10000600FCCFFBCFFACFF9CFF8CFF7CFF6CFF5CFAE
:100016000000F894EE27ECBBE5BFF8E1F1BDE1BDC9
:100026008DE0A2E0ED938A95E9F780E8A0E6ED93EE
:100036008A95E9F7E6E1F0E0C8953196802DC895F6
:100046003196902D0097B9F0C8953196A02DC89598
:100056003196B02DC8953196102CC89531966E2FD5
:100066007F2FF02DE12DC89531960D920197D9F786
:10007600E62FF72FE1CFEFEDEDBFC0E8D0E000C0EF
:10008600EFEFE8BBE7BBEFE7E2BBE0E0E1BBE3BFD6
:10009600E2BFEFBDEEBDEDBDECBDEBBDEABDEBBF16
:1000A600E5BFE9BFE0E8E8B9E2B3E8BBFDCFFFCFC3
:00000001FF
