:1000000012C02AC029C028C028C026C025C024C0CC
:1000100023C022C021C020C01FC01EC01DC01CC0E4
:100020001BC01AC019C011241FBECFEDCDBF10E0F8
:10003000A0E6B0E0EEE5F1E003C0C89531960D9280
:10004000A036B107D1F710E0A0E6B0E001C01D92E4
:10005000A136B107E1F73AC0D3CF1F920F920FB686
:100060000F9211248F939F93CF93DF93CDB7DEB779
:1000700080913000992781709070009769F080918D
:10008000600086958093600080916000882381F4F1
:1000900080E8809360000CC080916000880F80939E
:1000A000600080916000882319F481E080936000F3
:1000B00080916000809580933800DF91CF919F916F
:1000C0008F910F900FBE0F901F901895CEEDD0E03E
:1000D000DEBFCDBF80E880934600109246001092AC
:1000E0003B0010923A008FEF809338008FEF80939F
:1000F00037008FE780933200109231001092500049
:1001000010925300109252001092560010925C0010
:1001100010924F008DE080934E0010924D0010928F
:100120004C0010924500109244008CE093E09093B4
:100130004B0080934A0010924900109248001092A0
:100140005B001092550080E48093590010922D00BE
:0E01500080E88093280080E189837894FFCFB7
:00000001FF
