:1000000012C02AC029C028C027C026C025C024C0CD
:1000100023C022C021C020C01FC01EC01DC01CC0E4
:100020001BC01AC019C011241FBECFEDCDBF10E0F8
:10003000A0E6B0E0E6E1F1E003C0C89531960D928C
:10004000A036B107D1F710E0A0E6B0E001C01D92E4
:10005000A036B107E1F701C0D3CFCFEDD0E0DEBFCE
:10006000CDBF80E8809346001092460010923B007E
:1000700010923A008FEF809338008FEF8093370013
:100080008FE780933200109231001092500010924E
:100090005300109252001092560010925C00109281
:1000A0004F0010924E0010924D0010924C00109292
:1000B00045001092440010924B0010924A0010929A
:1000C00049001092480010925B0010925500109267
:1000D000590010922D0080E8809328008091300014
:1000E000992781709070009709F0F8CF80913600C1
:1000F000992781709070009719F01092380003C012
:1001000081E0809338008091300099278170907051
:06011000009721F7F8CF73
:00000001FF
