:1000000012C02AC029C028C027C026C025C024C0CD
:1000100023C022C021C020C01FC01EC01DC01CC0E4
:100020001BC01AC019C011241FBECFEDCDBF10E0F8
:10003000A0E6B0E0E4E3FFE003C0C89531960D927E
:10004000A836B107D1F710E0A8E6B0E001C01D92D4
:10005000A836B107E1F701C0D3CFC2EDD0E0DEBFD3
:10006000CDBF80E8809346001092460010923B007E
:1000700010923A008FEF809338008FEF8093370013
:100080008FE780933200109231001092500010924E
:100090005300109252001092560010925C00109281
:1000A0004F0010924E0010924D0010924C00109292
:1000B00045001092440010924B0010924A0010929A
:1000C00049001092480010925B0010925500109267
:1000D000590010922D0080E8809328008091300014
:1000E000992781709070009709F45BC080E889833C
:1000F0008981882399F3898180958093380089814B
:100100008695898380E090E0A8E4B3E48A839B83AA
:10011000AC83BD8320E030E04AE753E46A817B8111
:100120008C819D81A0D2B92FA82F972F862F8887E9
:100130009987AA87BB8720E030E040E85FE36885C5
:1001400079858A859B8537D488230CF005C081E0AA
:1001500090E09F838E831AC020E03FEF4FE757E483
:10016000688579858A859B85B0D318160CF003C005
:100170001F821E820BC0688579858A859B856DD01C
:10018000B92FA82F972F862F9F838E838E819F81D3
:100190009D878C878C859D850197F1F79D878C873E
:1001A000A7CF81E089838981882309F497CF89814A
:1001B0008095809338008981880F898380E090E062
:1001C000A8E4B3E488879987AA87BB8720E030E05A
:1001D0004AE753E4688579858A859B8544D2B92F9F
:1001E000A82F972F862F8A839B83AC83BD8320E023
:1001F00030E040E85FE36A817B818C819D81DBD3C5
:1002000088230CF005C081E090E09D878C871AC0A0
:1002100020E03FEF4FE757E46A817B818C819D812D
:1002200054D318160CF003C01D861C860BC06A81BF
:100230007B818C819D8111D0B92FA82F972F862F7C
:100240009D878C878C859D859F838E838E819F81E2
:100250000197F1F79F838E83A6CFEF92FF920F93C2
:100260001F93E62EF72E082F192F20E030E040E0F4
:100270005FE466D38823BCF020E030E040E05FEC30
:10028000912F802F7F2D6E2D78D1B92FA82F972FEA
:10029000862F682F792F8A2F9B2FC8D360507040EC
:1002A0008040904805C0912F802F7F2D6E2DBED3AA
:1002B0001F910F91FF90EF900895A0E0B0E0E2E66B
:1002C000F1E000C6082F192FE62EF72EA42EB52E2A
:1002D000B92FA82F8C91823068F0F72FE62F9081EC
:1002E000923018F45F2D4E2D42C1843031F4943099
:1002F00009F4CAC0512F402F3AC1943099F392307B
:1003000009F4CEC0823071F3F12FE02FC280D38088
:10031000F72FE62F62817381F12FE02F2481358141
:1003200046815781FF2DEE2D6480758086809780F1
:100330009D2D8C2D861B970B97FD07C180970CF484
:1003400088C06C157D050CF0D7C0662477248824FE
:100350009924F12FE02F6181FF2DEE2D8181681707
:1003600009F4BCC0662309F4B4C0621A730A840A93
:10037000950A592D482D372D262D57FDEAC0FB2D06
:10038000EA2D11827D2D6C2D222E332E442E552EDA
:10039000E22EF32E042F152F622E732E842E952E0F
:1003A00008946108710881089108FFEF6F16FFEF4C
:1003B0007F06FFEF8F06FFE39F0640F5512F402F8A
:1003C0003F2D2E2D220F331F441F551F222E332E5B
:1003D000442E552E7D2D6C2D61507040C62ED72E8B
:1003E000E22EF32E042F152F622E732E842E952EBF
:1003F000089461087108810891088FEF68168FEFE3
:1004000078068FEF88068FE39806C0F283E0BB2D55
:10041000AA2D8C9357FC77C0FB2DEA2D24833583BE
:1004200046835783738362835B2D4A2DA0C06F5F21
:100430007F4FB92DA82D972D862D81709070A070BB
:10044000B0709694879477946794682A792A8A2A58
:100450009B2A6C157D055CF313C00894C11CD11C4C
:10046000B52FA42F932F822F81709070A070B07041
:100470005695479537952795282B392B4A2B5B2B7B
:10048000C616D70654F365CFF12FE02F9181F72FD1
:10049000E62F8181981709F42DCF40E650E067C020
:1004A000823009F027CFB52FA42FF12FE02F88E05D
:1004B00001900D928150E1F7F12FE02F8181FF2D06
:1004C000EE2D91818923FB2DEA2D81835B2D4A2D11
:1004D0004EC026193709480959094FCFFB2DEA2D7F
:1004E00061837D2D6C2D260D371D481D591D222E33
:1004F000332E442E552E8ACFC62ED72E20E030E044
:1005000040E050E026CFB52DA42D932D822DB69539
:10051000A7959795879521E030E040E050E02222B2
:10052000332244225522282A392A4A2A5B2AFB2DC3
:10053000EA2D24823582468257820894C11CD11C40
:10054000D382C2825B2D4A2D12C0909581959F4F18
:10055000F5CE81E0FB2DEA2D81837D2D6C2D50950C
:100560004095309521953F4F4F4F5F4F0DCF952FC1
:10057000842FE2E1CDB7DEB7C1C4A0E2B0E0E2EC87
:10058000F2E0AEC4B92FA82F972F862F898F9A8FAC
:10059000AB8FBC8F2D8F3E8F4F8F58A36C2F7D2F2D
:1005A0006F5F7F4F8C2F9D2F49968AD30C2F1D2F65
:1005B000075F1F4F712F602F8C2F9D2F4D9680D37B
:1005C0004C2F5D2F4F5E5F4F712F602F8C2F9D2F13
:1005D000019673DE80D2B92FA82F972F862F682F10
:1005E000792F8A2F9B2FE4E0A09696C4A0E2B0E07A
:1005F000EBEFF2E075C4B92FA82F972F862F898FC4
:100600009A8FAB8FBC8F2D8F3E8F4F8F58A36C2F3F
:100610007D2F6F5F7F4F8C2F9D2F499651D30C2FCD
:100620001D2F075F1F4F712F602F8C2F9D2F4D9611
:1006300047D38A8591E089278A874C2F5D2F4F5EAB
:100640005F4F712F602F8C2F9D2F019636DE43D286
:10065000B92FA82F972F862F682F792F8A2F9B2F9E
:10066000E4E0A09659C4A0E2B0E0E8E3F3E02AC4D5
:10067000B92FA82F972F862F898F9A8FAB8FBC8F7A
:100680002D8F3E8F4F8F58A36C2F7D2F6F5F7F4F25
:100690008C2F9D2F499614D369E070E06C0F7D1F5D
:1006A0008C2F9D2F4D960CD3FD2FEC2F3196662469
:1006B000772488249924262C372C482C592C89817E
:1006C000823098F09985923058F420E091818A85A3
:1006D000981321E02A8769E070E06C0F7D1FE7C066
:1006E000843061F4923009F460C020E091818A8501
:1006F000981321E021836E2F7F2FD9C0943009F405
:1007000051C0823091F3923001F3ED80FE800F8171
:1007100018852D853E854F855889D92CC82CB72C36
:10072000A62C6FE170E00CC0220F331F441F551F31
:1007300016950795F794E7946150704077FD38C09F
:10074000B12FA02F9F2D8E2D81709070A070B07052
:10075000892BC9F080E090E0220E331E441E551E06
:10076000221633064406550610F481E090E0AA27CD
:1007700097FDA095BA2F8A0D9B1DAC1DBD1D680E5F
:10078000791E8A1E9B1EAA0CBB1CCC1CDD1C57FFAD
:10079000CBCF81E090E0A0E0B0E0A82AB92ACA2A35
:1007A000DB2AC2CF823009F090CF60E670E07FC0D4
:1007B000228133818B859C85280F391F2E5F3F4F07
:1007C000532F422F60E091818A85981361E06A8BF4
:1007D00097FE12C034C0952F842F0197482F592FB0
:1007E000282F392F660C771C881C991C57FC46C093
:1007F000220C331C441C551C90E0691690E07906CD
:1008000090E0890690E4990630F33C8B2B8BB92D50
:10081000A82D972D862D8F779070A070B0708034A2
:100820009105A105B10599F16D8A7E8A8F8A988E0E
:1008300083E0898B61E170E06C0F7D1F38C02F5F12
:100840003F4F532F422FB92DA82D972D862D817004
:100850009070A070B070892B61F0569447943794D3
:10086000279480E090E0A0E0B0E8282A392A4A2ABC
:100870005B2A9694879477946794BECF81E090E04A
:10088000A0E0B0E0682A792A8A2A9B2AB1CF67FCC7
:1008900005C0211431044104510431F280E490E098
:1008A000A0E0B0E0680E791E8A1E9B1EBDCF972F78
:1008B000862F11D1B92FA82F972F862F682F792F28
:1008C0008A2F9B2FE2E1A09619C3A8E1B0E0EAE6E7
:1008D000F4E006C3B92FA82F972F862F898B9A8B08
:1008E000AB8BBC8B2D8B3E8B4F8B588F6C2F7D2F02
:1008F0006F5F7F4F8C2F9D2F4196E2D10C2F1D2FC4
:10090000075F1F4F712F602F8C2F9D2F4596D8D1D9
:100910008981823018F08985823018F42FEF3FEFFB
:100920000AC0712F602F8C2F9D2F01964CD2282F3B
:10093000332727FD3095932F822FE4E06896ECC291
:10094000A8E1B0E0E5EAF4E0CBC2B92FA82F972FD9
:10095000862F898B9A8BAB8BBC8B2D8B3E8B4F8BD1
:10096000588F6C2F7D2F6F5F7F4F8C2F9D2F41965F
:10097000A7D10C2F1D2F075F1F4F712F602F8C2FBA
:100980009D2F45969DD18981823018F089858230CE
:1009900018F42FEF3FEF0AC0712F602F8C2F9D2F7F
:1009A000019611D2282F332727FD3095932F822FC0
:1009B000E4E06896B1C2A8E1B0E0E0EEF4E090C2F5
:1009C000B92FA82F972F862F898B9A8BAB8BBC8B37
:1009D0002D8B3E8B4F8B588F6C2F7D2F6F5F7F4FF2
:1009E0008C2F9D2F41966CD10C2F1D2F075F1F4F11
:1009F000712F602F8C2F9D2F459662D18981823077
:100A000018F08985823018F421E030E00AC0712F97
:100A1000602F8C2F9D2F0196D6D1282F332727FDAD
:100A20003095932F822FE4E0689676C2ACE0B0E078
:100A3000EBE1F5E057C2B92FA82F972F862F8987B2
:100A40009A87AB87BC876C2F7D2F6F5F7F4F8C2F72
:100A50009D2F099635D18981823011F0823028F49A
:100A600060E070E080E090E033C0843039F02B81AA
:100A70003C8137FDF5CF2F3131056CF08A81882319
:100A800029F060E070E080E090E822C06FEF7FEF37
:100A90008FEF9FE71DC08EE190E0821B930B2D81AD
:100AA0003E814F81588504C05695479537952795C7
:100AB0008A95D2F78A81882339F0509540953095F0
:100AC00021953F4F4F4F5F4F952F842F732F622FEC
:100AD000E2E02C9623C2A0E0B0E0E0E7F5E0F8C148
:100AE00088249924AA24BB24B92FA82FF92FE82FF2
:100AF00024813581468157818181082F112760E04B
:100B000070E08C91823020F46FEF70E04061ACC0F7
:100B1000843009F469C0823009F468C021153105B8
:100B20004105510509F4A0C0FB2FEA2F8281938172
:100B3000FFEF82389F070CF054C0A2E8EA2EAFEF17
:100B4000FA2EE81AF90A8AE1E816F1040CF072C0EC
:100B5000C62ED72E81E090E0A0E0B0E00E2C04C0BD
:100B6000880F991FAA1FBB1F0A94D2F70197A109EA
:100B7000B10982239323A423B5230097A105B105CE
:100B800019F0F1E0CF2ED12C04C05695479537953A
:100B90002795EA94D2F78C2D9D2DAA2797FDA09535
:100BA000BA2F282B392B4A2B5B2BB52FA42F932F31
:100BB000822F8F779070A070B07080349105A1055E
:100BC000B105E9F1215C3F4F4F4F5F4F2030E0E02E
:100BD0003E07E0E04E07E0E45E0720F161E070E0F0
:100BE00021C0803891053CF06FEF70E020E030E0EC
:100BF00040E050E039C0682F792F61587F4FB52F02
:100C0000A42F932F822F8F779070A070B0708034B4
:100C10009105A105B105D1F0215C3F4F4F4F5F4FCA
:100C200057FD1BC097E056954795379527959A95A0
:100C3000D1F71AC020E030E040E050E0B6CF27FF07
:100C4000C5CF205C3F4F4F4F5F4FC0CF27FFE8CF4E
:100C5000205C3F4F4F4F5F4FE3CF569547953795F9
:100C600027956F5F7F4FDECF822E932E942F9F7735
:100C70008A2D8078A82EA92A962F9795992797953F
:100C80008A2D8F77A82EA92A76956795962F9F771C
:100C90008B2D8078B82EB92A902F97959927979504
:100CA0008B2D8F77B82EB92ABB2DAA2D992D882D83
:100CB000682F792F8A2F9B2FECE0CDB7DEB724C1A8
:100CC000CF93DF93F92FE82FB72FA62F40815181C3
:100CD0002281622F6F7770E0221F2227221F9381CB
:100CE000892F880F822B282F3327991F9927991F27
:100CF000DB2FCA2F99832115310541F44115510588
:100D000061057105F1F482E08C935AC02F3F3105E3
:100D100009F447C02F573040FB2FEA2F338322833B
:100D200083E08C9387E0440F551F661F771F8A95D9
:100D3000D1F77064DB2FCA2F4C835D836E837F8372
:100D40003FC022E83FEFF32FE22FC7E0440F551FCB
:100D5000661F771FCA95D1F783E08C93403080E0FF
:100D6000580780E0680780E4780780F4440F551F37
:100D7000661F771F21503040F32FE22F4030C0E034
:100D80005C07C0E06C07C0E47C0780F3DB2FCA2F50
:100D9000FB83EA83FB2FEA2F4483558366837783A3
:100DA0000FC0411551056105710519F484E08C935C
:100DB00007C064FF03C081E08C93BCCF1C92BACF04
:100DC000DF91CF9108950F931F93CF93DF93F92F66
:100DD000E82FB72FA62F8081823018F09C91923097
:100DE00018F461E070E067C08430D1F0843019F10C
:100DF000943009F44DC0823009F453C0823009F4B4
:100E000056C09230C1F04181DB2FCA2F898148172B
:100E1000D1F0442399F08FEF9FEF682F792F4BC0CB
:100E2000943021F7D72FC62F8981682F77278181AA
:100E3000681B710940C08181882369F781E090E0D7
:100E4000682F792F38C022813381DB2FCA2F8A8106
:100E50009B8182179307ECF228173907A4F00481CD
:100E6000158126813781FB2FEA2F64817581868168
:100E70009781601771078207930758F206171707C3
:100E80002807390788F4442331F281E090E0D8CF75
:100E9000FB2FEA2F8181882309F4BDCF81E090E008
:100EA000CFCF923009F0AACF60E070E004C0DB2F12
:100EB000CA2F8981F0CF972F862FDF91CF911F9175
:100EC0000F9108952F923F924F925F926F927F926F
:100ED0008F929F92AF92BF92CF92DF92EF92FF924A
:100EE0000F931F93CF93DF93CDB7DEB7CA1BDB0BF6
:100EF0000FB6F894DEBF0FBECDBF09942A8839889B
:100F000048885F846E847D848C849B84AA84B984A1
:100F1000C884DF80EE80FD800C811B81AA81B981AD
:100F2000CE0FD11D0FB6F894DEBF0FBECDBFCA2FB6
:040F3000DB2F089516
:080F34000000000000000000B5
:00000001FF
