:1000000012C02AC029C028C027C026C025C024C0CD
:1000100023C022C021C020C01FC01EC01DC01CC0E4
:100020001BC01AC019C011241FBECFEDCDBF10E0F8
:10003000A0E6B0E0ECE4F1E003C0C89531960D9283
:10004000A036B107D1F710E0A0E6B0E001C01D92E4
:10005000A036B107E1F715C0D3CFCF93DF93CDB76B
:10006000DEB710924D0010924C0080914C009091A0
:100070004D0023E08C30920708F4F7CFDF91CF9149
:100080000895CEEDD0E0DEBFCDBF80E8809346007E
:100090001092460010923B0010923A008FEF80932E
:1000A00038008FEF809337008FE7809332001092F3
:1000B0003100109250001092530010925200109292
:1000C000560010925C0010924F0085E080934E0025
:1000D00010924D0010924C00109245001092440076
:1000E00010924B0010924A00109249001092480062
:1000F00010925B00109255001092590010922D0042
:1001000080E880932800809130009927817090705A
:10011000009771F080E8898389818823A1F3898120
:1001200080958093380089818695898396DFF4CF06
:1001300081E089838981882331F389818095809347
:0C01400038008981880F898388DFF4CFA4
:00000001FF
