:040000005BC1FECF13
:10000400FDCFFCCFFBCFFACFF9CFF8CFF7CFF6CFA8
:10001400F5CFF4CFF3CFF2CFF1CFF0CFEFCFEECFD8
:10002400EDCF200040008000000100020004000821
:1000340000008C1280118410980FB80EE40D1C0D72
:10004400600CAE0B060B680AD2094609C0084208C8
:10005400CC075C07F2068E063006D7058305340507
:10006400E904A30460042104E603AE03790347030F
:1000740018036D686D686D6C6C606C686C686C6D91
:100084006D606D686D686D6C6C606C686C686C8DAF
:10009400606D6F4F4F6F6F7050507070706F6D6CFC
:1000A4006D6D606D6F4F4F6F6F7050507070706FEB
:1000B4006D6C8D8060FF6D6E8D666869666D6E8D8A
:1000C40068696B686D6E8D68698B6D6EAD607273F7
:1000D400926D6E706D7273926B6D6E72706E926DC6
:1000E40069886B698680806669898880686B8B897A
:1000F40080696D8D8B806E6DB0706C6D70908E802C
:100104006B6E8E8D80696D8B80AD8680806D7090F6
:100114008E806B6E8E8D80696D8B80AD9280FF00BA
:10012400848D8D8B8D898484848D8D8E8BB080900D
:1001340092929A9A9997959099999799B58060FF18
:100144006B6B8D8B908F806B6B8D8B9290806B6BB8
:10015400979492706F9575759490929080FF63AFA9
:100164006D6B6A6663906FAF60636B6B6B6B666895
:10017400AA60636D6D6D6D6B6A8F6D8D636D6D6D52
:100184006D686AAB60636F6D6B6A6663906F8F684E
:10019400727272726D6FB0606874706D6B6A404990
:1001A4008F6B8363905050706F404BAD80FF696DCF
:1001B40070957440509472404E92706069696D906D
:1001C4006F405091704051B260757575957440528E
:1001D4009270404F92906069696B8D6C6D706E6621
:1001E40068898060696969896640498E696B6D4078
:1001F4004B89606969698966698E704052B460741C
:1002040074749472708E6D404E92906069696B8DB7
:100214006C6D706E6668A96060FF6B688D8B666933
:100224006866A480686B6D6D6D6F72706F6D908B76
:10023400806D6F90606F6D686B69AD806F6D706B72
:100244006F6D6D6B666886848064676B6B6B6B8B9C
:100254007064676666668666676B696B6C6C6C6CEB
:100264006B696B6C908E80706B6E8C70696C6B6B51
:100274006B698C8B8B70676667696C6B6967807060
:100284006B6E6C6C6C8C70696C6B6B6B8B70676673
:1002940067696C6B6967698B8480606060FF760056
:1002A400BA00240144016201B2011E020E00800062
:1002B400A2020000F894EE27ECBBE5BFF8E1A4B776
:1002C400A77FA4BFF1BDE1BD8DE0A2E0ED938A95C7
:1002D400E9F780E8A0E6ED938A95E9F7E0EBF2E030
:1002E40085919591009761F0A591B5910590159030
:1002F400BF01F00105900D920197E1F7FB01F0CFEA
:10030400E0E0E3BBE0E0E4BBE0E0E5BBEFEDEDBF44
:10031400C0E8D0E000C0E8E0E8BBE7BBEFE7E2BB41
:10032400E0E0E1BB3CD0E9E0EEBDE0E8E8B910B3C1
:1003340000E0073028F410FF05C016950F5FF9CFD1
:100344002ED0F5CFE02FA0E8EE0FAE0F4D915C91CB
:10035400E0B3EF37A9F326D0EF3FA1F323D0EF7139
:100364002E2F20D0E295EF70E695E7703E2F2030D7
:1003740041F0A4E3B0E0E22F19D0FBBDEABDE0E414
:10038400EFBDA6E2B0E0E32F11D017D008D0E6E22B
:10039400F0E022D012D04F5F5F4FDACFFFCFE0E022
:1003A400EFBD0895E42FF52FE4910895F0E0EE0FEA
:1003B400FF1FEA0FFB1F10D00895FA93EA9300C0C1
:1003C400E991F991309639F088EE93E00197F1F7CD
:1003D400A8953197C9F708950590F491E02D0895F3
:00000001FF
