:020000000AC034
:10000200FECFFDCFFCCFFBCFFACFF9CFF8CFF7CFA2
:10001200F6CF0000F894EE27ECBBE5BFF8E1A4B7F9
:10002200A77FA4BFF1BDE1BD8DE0A2E0ED938A956B
:10003200E9F780E4A0E6ED938A95E9F7E4E1F0E0E0
:10004200C8953196802DC8953196902D0097B9F0BC
:10005200C8953196A02DC8953196B02DC895319688
:10006200102CC89531966E2F7F2FF02DE12DC8955B
:1000720031960D920197D9F7E62FF72FE1CFEFE9ED
:10008200EDBFC0E7D0E000C0EFEFE8BBE7BBEFE7B2
:10009200E2BBE0E0E1BBE3BFE2BFEFBDEEBDEDBD21
:1000A200ECBDEBBDEABDEBBFE5BFE9BFE0E8E8B9F7
:1000B200809B08C000E8003021F00DD006950FD0DB
:1000C200FACF07C001E0003021F005D0000F07D0C1
:1000D200FACFEECFFFCFEFEFE027E8BB0895EAEFCC
:1000E200F0E0FA93EA9300C0E991F991309639F081
:1000F20088EE93E00197F1F7A8953197C9F7089533
:00000001FF
