:020000020000FC
:1000000012C018951895189528C018951895189528
:100010001895189518951895189518951895189578
:100020001895189518950FE70DBF00E806BD00E07C
:1000300006BD01BB0FEF07BB08BB02BB0DE00EBD49
:1000400003E00BBD0CE00ABD00E409BF00E808B9FD
:1000500010E1109360007894FFCF0F931F931091DD
:10006000600000B300FF04C0169528F410E803C038
:10007000110F08F411E00FEF012708BB1093600087
:060080001F910F9118957D
:00000001FF
