:040000000AC0FECF65
:10000400FDCFFCCFFBCFFACFF9CFF8CFF7CFF6CFA8
:100014000000F894EE27ECBBE5BFF8E1A4B7A77F96
:10002400A4BFF1BDE1BD8DE0A2E0ED938A95E9F7AF
:1000340080E4A0E6ED938A95E9F7E4E1F0E0C89561
:100044003196802DC8953196902D0097B9F0C895BA
:100054003196A02DC8953196B02DC8953196102CA7
:10006400C89531966E2F7F2FF02DE12DC8953196CE
:100074000D920197D9F7E62FF72FE1CFEFE9EDBF06
:10008400C0E7D0E000C0E0E833D032D0EBBBE0E022
:10009400EABBEFEFE8BBE7BBEFE7E2BBE0E0E1BBC5
:1000A400E0BFE3BFE2BFE6BFECBFEFBDEEBDEDBD19
:1000B400ECBDE5BDE4BDEBBDEABDE9BDE8BDEBBF0C
:1000C400E5BFE9BFEDB9E0E8E8B9809B08C000E806
:1000D400003021F010D0069512D0FACF07C001E00D
:1000E400003021F008D0000F0AD0FACFEECFFFCFB6
:1000F400E6BDE0E00895EFEFE027E8BB0895E8EC03
:10010400F0E0FA93EA9300C0E991F991309639F05E
:1001140088EE93E00197F1F7A8953197C9F7089510
:00000001FF
