:020000020000FC
:1000000012C018951895189591C090C0189518951C
:100010001895189518951895189518951895189578
:100020001895189518950FED0DBF08E107BB07EE61
:1000300008BB0FE702BB00E001BB00E808B90BE01A
:100040000BBD08EB0ABD03E00EBD5FE767E037D0EC
:10005000F1F735D0F1F3F0E0E0E63327F89411E062
:1000600043D02DD0A193B193339533953C3340F4D5
:100070005A2F6B2F12E038D022D081F72130E1F7D0
:10008000B7990BC0132F48E040D049E0F0E0E0E61C
:1000900011913BD03A95E1F70DC048E03FD03117C0
:1000A00069F449E0F0E0E0E639D00191101731F44D
:1000B0003A95D1F7C49A13E017D0C498C6CF3F93AE
:1000C000A0E0B0E034E11A2E2B2EA0B3AF77B6B388
:1000D000B770A115B9F7B215A9F73A95B1F7A517F9
:1000E00009F4B6173F910895113011F400E401C0EE
:1000F00000E809BF00270DBD0CBD20E07894123048
:1001000019F02130F1F7F8940895F894E199FDCFB2
:100110004EBB1DBBE29AE19A43950895F894E1998C
:10012000FDCF4EBBE09A1DB34395089521E018958D
:00000001FF
