:020000020000FC
:1000000012C0189518951895189518951895189563
:100010001895189518951895189518951895189578
:100020001895189518950FED0DBF08E008BB07BB94
:100030000FE702BB00E001BB00E808B909E00EBD14
:1000400000E00FBD222700B3069520F4239527304A
:10005000D9F7F6CFC22FEAE4F1E015D0A591B4911B
:10006000FB2FEA2F00B30F3759F304910F3FC1F371
:100070000F71302F0591001F001F001F001F077018
:10008000402F08D0EFCFDF93CC0FD0E0EC0FFD1F57
:10009000DF910895FF93EF93CF930F93303051F09A
:1000A000C32FE8E0F1E0EFDF059114911BBD0ABD1D
:1000B00000E40FBD09D000E00FBD40E005D00F9176
:1000C000CF91EF91FF910895FF93EF93DF93CF933B
:1000D000C42FEAEFF0E0D7DFC591D491EE27FF27D8
:1000E0005FEF5A95F1F73196CE17D1F7DF17C1F7C9
:1000F000CF91DF91EF91FF91089580000001000200
:10010000000400080010002000008C1280118410F0
:10011000980FB80EE40D1C0D600CAE0B060B680AB0
:10012000D2094609C0084208CC075C07F2068E06D1
:100130003006D70583053405E904A30460042104CF
:10014000E603AE0379034703180358019C01060236
:1001500026024402940200036D686D686D6C6C6049
:100160006C686C686C6D6D606D686D686D6C6C60F2
:100170006C686C686C8D606D6F4F4F6F6F70505016
:100180007070706F6D6C6D6D606D6F4F4F6F6F70D5
:1001900050507070706F6D6C8D8060FF6D6E8D66ED
:1001A0006869666D6E8D68696B686D6E8D68698B48
:1001B0006D6EAD607273926D6E706D7273926B6DD9
:1001C0006E72706E926D69886B69868080666989CF
:1001D0008880686B8B8980696D8D8B806E6DB07047
:1001E0006C6D70908E806B6E8E8D80696D8B80AD26
:1001F0008680806D70908E806B6E8E8D80696D8B29
:1002000080AD928060FF848D8D8B8D898484848DF8
:100210008D8E8BB0809092929A9A99979590999999
:100220009799B58060FF6B6B8D8B908F806B6B8D1A
:100230008B9290806B6B979492706F95757594907C
:10024000929080FF63AF6D6B6A6663906FAF60637F
:100250006B6B6B6B6668AA60636D6D6D6D6B6A8F9F
:100260006D8D636D6D6D6D686AAB60636F6D6B6A8C
:100270006663906F8F68727272726D6FB06068742F
:10028000706D6B6A40498F6B8363905050706F4004
:100290004BAD80FF696D70957440509472404E92E2
:1002A000706069696D906F405091704051B2607597
:1002B0007575957440529270404F92906069696B69
:1002C0008D6C6D706E666889806069696989664049
:1002D000498E696B6D404B89606969698966698E71
:1002E000704052B4607474749472708E6D404E920B
:1002F000906069696B8D6C6D706E6668A96060FF57
:100300006B688D8B66696866A480686B6D6D6D6FB8
:1003100072706F6D908B806D6F90606F6D686B69A0
:10032000AD806F6D706B6F6D6D6B66688684806479
:10033000676B6B6B6B8B7064676666668666676BF4
:10034000696B6C6C6C6C6B696B6C908E80706B6E97
:100350008C70696C6B6B6B698C8B8B706766676973
:100360006C6B696780706B6E6C6C6C8C70696C6B9D
:100370006B6B8B70676667696C6B6967698B848070
:04038000606060FF5A
:00000001FF
