:1000000019C031C030C02FC02EC02DC02CC02BC095
:100010002AC029C028C027C026C025C024C023C0AC
:1000200022C021C020C08C1280118410980FB80EFD
:10003000E40D1C0D11241FBECFEDCDBF10E0A0E6D6
:10004000B0E0EAEFF0E003C0C89531960D92A0361B
:10005000B107D1F710E0A0E6B0E001C01D92A036D4
:10006000B107E1F701C0CCCFCDEDD0E0DEBFCDBF11
:1000700088E08093380088E0809337008FE7809392
:1000800032001092310080E88093280010924F00D7
:1000900089E080934E00809130008A8319828981A3
:1000A000873098F48A81282F332781E090E08227D7
:1000B000932781709070009709F00AC08A81869515
:1000C0008A8389818F5F8983EACF10924F00E3CFC3
:1000D0008981282F3327932F822F820F931FF92F87
:1000E000E82FEA5DFF4F8081918190934B008093D0
:0A00F0004A0080E480934F00CECF59
:00000001FF
