:0E00000091C1FECFFDCFFCCFC0C1BDC1F9CF75
:10000E00F8CFF7CFF6CFF5CFF4CFF3CFF2CFF1CFC6
:10001E00F0CFEFCFEECFEDCF2000400080000001FB
:10002E0000020004000800008C1280118410980F4A
:10003E00B80EE40D1C0D600CAE0B060B680AD2094F
:10004E004609C0084208CC075C07F2068E06300649
:10005E00D70583053405E904A30460042104E603EF
:10006E00AE037903470318036D686D686D6C6C60A1
:10007E006C686C686C6D6D606D686D686D6C6C60D5
:10008E006C686C686C8D606D6F4F4F6F6F705050F9
:10009E007070706F6D6C6D6D606D6F4F4F6F6F70B8
:1000AE0050507070706F6D6C8D8060FF6D6E8D66D0
:1000BE006869666D6E8D68696B686D6E8D68698B2B
:1000CE006D6EAD607273926D6E706D7273926B6DBC
:1000DE006E72706E926D69886B69868080666989B2
:1000EE008880686B8B8980696D8D8B806E6DB0702A
:1000FE006C6D70908E806B6E8E8D80696D8B80AD09
:10010E008680806D70908E806B6E8E8D80696D8B0B
:10011E0080AD9280FF00848D8D8B8D898484848D3B
:10012E008D8E8BB0809092929A9A9997959099997C
:10013E009799B58060FF6B6B8D8B908F806B6B8DFD
:10014E008B9290806B6B979492706F95757594905F
:10015E00929080FF63AF6D6B6A6663906FAF606362
:10016E006B6B6B6B6668AA60636D6D6D6D6B6A8F82
:10017E006D8D636D6D6D6D686AAB60636F6D6B6A6F
:10018E006663906F8F68727272726D6FB060687412
:10019E00706D6B6A40498F6B8363905050706F40E7
:1001AE004BAD80FF696D70957440509472404E92C5
:1001BE00706069696D906F405091704051B260757A
:1001CE007575957440529270404F92906069696B4C
:1001DE008D6C6D706E66688980606969698966402C
:1001EE00498E696B6D404B89606969698966698E54
:1001FE00704052B4607474749472708E6D404E92EE
:10020E00906069696B8D6C6D706E6668A96060FF39
:10021E006B688D8B66696866A480686B6D6D6D6F9B
:10022E0072706F6D908B806D6F90606F6D686B6983
:10023E00AD806F6D706B6F6D6D6B6668868480645C
:10024E00676B6B6B6B8B7064676666668666676BD7
:10025E00696B6C6C6C6C6B696B6C908E80706B6E7A
:10026E008C70696C6B6B6B698C8B8B706766676956
:10027E006C6B696780706B6E6C6C6C8C70696C6B80
:10028E006B6B8B70676667696C6B6967698B848053
:10029E00606060FF66698D6B698D606BAB606869CD
:1002AE008B6869A680A06D6E906E6D90606EAE804C
:1002BE006E70927072CD7575957472956074AE8015
:1002CE006E70927072CD8066698D6B698D606BAB4E
:1002DE008068698B6869A680807575957472956063
:1002EE0074AE806E70927072CD8066698D6B698D02
:1002FE00606BAB8068698B6869A6808060FF760052
:10030E00BA00240144016201B2011E02A2021000D1
:10031E00BC000C030000F894EE27ECBBE5BFF8E13F
:10032E00A4B7A77FA4BFF1BDE1BD8DE0A2E0ED9320
:10033E008A95E9F780E8A0E6ED938A95E9F7ECE176
:10034E00F3E085919591009761F0A591B591059097
:10035E001590BF01F00105900D920197E1F7FB0199
:10036E00F0CFE0E0E3BBE0E0E4BBE0E0E5BBEFEDC7
:10037E00EDBFC0E8D0E072C0D7D01895D5D0189593
:10038E003BD100E010E040E04431E0F4E6B3E7702A
:10039E00F0E02E2F3F2FE22FF32FFE2FE0E0FF9302
:1003AE00EF93E0B3EF77AF91BF91F0E0EA0FFB1F51
:1003BE002E2F3F2F2017310719F040E0022F132F59
:1003CE004F5FE2CFE22FF32F1DD125960895A8811E
:1003DE00A13011F4E0E401C0E0E8E9BFAAD0222484
:1003EE007894A881A23011F02220F1F3219608957D
:1003FE0004D1E9E0EEBDE32DACEBA0D02D913C9104
:10040E00B69923C09ED0EF3FB1F39BD0EF710E2F64
:10041E0098D0E295EF70E695E7701E2F003041F010
:10042E00A4E3B0E0E02F91D0FBBDEABDE0E4EFBD68
:10043E00A6E2B0E0E12F89D08FD091D0E6E2F0E0D5
:10044E00B2D08AD02F5F3F4FDBCF89D03394E8E014
:10045E003E1608F03324D7D024960895E7EEE8BB75
:10046E00E8E1E7BBEFE7E2BBE0E0E1BB78D061D0CB
:10047E00E8EBFBE0FBBDEABDE0E8E8B9332472D05F
:10048E00F1F770D019F4B69BB3DFFBCFE3E0EEBD0E
:10049E0000E0F894E1E06BD073DF2E2F3F2FE02FBA
:1004AE000F5FA0E8EE0FAE0F2D933C930E3140F48C
:1004BE00E2E05DD065DF2E173F0759F72220D1F31A
:1004CE00B79914C0E02FA0E0B0E088D010E010176C
:1004DE0060F44FD0EA0FFB1FFF93EF9351D05FD024
:1004EE00AF91BF9173D01F5FF2CF18C0A0E0B0E004
:1004FE0062D00E1721F610E0101780F43AD0AE0F2E
:10050E00BF1F55D0FF93EF933BD049D0AF91BF9112
:10051E00EA17FB0709F0B3CF1F5FEECFC49AE3E0F3
:10052E0026D0C498ACCFFFCFEA93E1E02E2EE9910E
:10053E000895E0E0F0E0FDBDECBD0895EE0FAE0FC6
:10054E000895E22FF32FE4910895F0E0EE0FFF1FD0
:10055E00EA0FFB1F28D00895FA93EA9314C0E0E047
:10056E00EFBD08950DDFEF37A7E0FA070895EA9380
:10057E002ECFE12FA1E0B0E0F0E0EE0FFF1F0895C7
:10058E00E12FA0E8DBCFE991F991309639F088EEB2
:10059E0093E00197F1F7A8953197C9F70895ED917A
:1005AE00FC91AA9508950590F491E02D0895119669
:1005BE0002D0FE2F1197E199FECFFF93FFB7F8946B
:1005CE00AEBBE09AEDB3FFBFFF91089507D0119631
:1005DE00EF93EF2F03D0EF9111970895E199FECF8E
:1005EE009FB7F894AEBBE09A8DB3E81719F0EDBB48
:1005FE00E29AE19A9FBF08954A933A932A931A93E7
:10060E000A9308954C813B812A81198108810895AE
:00000001FF
