:0E00000013C0FECFFDCFFCCF42C03FC0F9CFF2
:10000E00F8CFF7CFF6CFF5CFF4CFF3CFF2CFF1CFC6
:10001E00F0CFEFCFEECFEDCF0000F894EE27ECBB94
:10002E00E5BFF8E1A4B7A77FA4BFF1BDE1BD8DE0A8
:10003E00A2E0ED938A95E9F780E8A0E6ED938A9524
:10004E00E9F7E6E2F0E085919591009761F0A591D0
:10005E00B59105901590BF01F00105900D92019795
:10006E00E1F7FB01F0CFE0E0E3BBE0E0E4BBE0E072
:10007E00E5BBEFEDEDBFC0E8D0E03CC09CD01895DD
:10008E009AD01895E1D000E010E040E04E31E0F457
:10009E00E6B3E770F0E02E2F3F2FE22FF32FFE2F67
:1000AE00E0E0FF93EF93E0B3EF77AF91BF91F0E015
:1000BE00EA0FFB1F2E2F3F2F2017310719F040E0BC
:1000CE00022F132F4F5FE2CFE22FF32FC3D02596CF
:1000DE000895A881A13011F4E0E401C0E0E8E9BF81
:1000EE006FD022247894A881A23011F02220F1F34F
:1000FE0021960895E7EEE8BBE8E1E7BBEFE7E2BB48
:10010E00E0E0E1BBEFBDE3E0EEBD5AD0E8EBFBE093
:10011E00FBBDEABDE0E8E8B958D0F1F756D0F1F3EF
:10012E0000E0F894E1E056D0ADDF2E2F3F2FE02F08
:10013E000F5F52D0AE0F2D933C930E3140F4E2E0A0
:10014E0049D0A0DF2E173F0761F72220D1F3B799D0
:10015E0014C0E02FA0E0B0E069D010E0101760F4FA
:10016E003ED0EA0FFB1FFF93EF9340D041D0AF91EB
:10017E00BF9154D01F5FF2CF18C0A0E0B0E043D0C3
:10018E000E1751F610E0101780F429D0AE0FBF1FD6
:10019E0036D0FF93EF932AD02BD0AF91BF91EA17B1
:1001AE00FB0709F0B9CF1F5FEECFC49AE3E012D080
:1001BE00C498B2CFFFCFEA93E1E02E2EE9910895D5
:1001CE00E0E0F0E0FDBDECBD08955CDFEF37A7E0A9
:1001DE00FA070895EA937DCFA0E8EE0F0895E12F78
:1001EE00A1E0B0E0F0E0EE0FFF1F0895E12FF4CF95
:1001FE00AE0F01D00895ED91FC91AA950895119638
:10020E0002D0FE2F1197E199FECFFF93FFB7F8941E
:10021E00AEBBE09AEDB3FFBFFF91089507D01196E4
:10022E00EF93EF2F03D0EF9111970895E199FECF41
:10023E009FB7F894AEBBE09A8DB3E81719F0EDBBFB
:10024E00E29AE19A9FBF08954A933A932A931A939A
:10025E000A9308954C813B812A8119810881089562
:00000001FF
