:060000000BC0FECFFDCF96
:10000600FCCFFBCFFACFF9CFF8CFF7CFF6CFF5CFAE
:100016000000F894EE27ECBBE5BFF8E1F1BDE1BDC9
:100026008DE0A2E0ED938A95E9F780E8A0E6ED93EE
:100036008A95E9F7E6E1F0E0C8953196802DC895F6
:100046003196902D0097B9F0C8953196A02DC89598
:100056003196B02DC8953196102CC89531966E2FD5
:100066007F2FF02DE12DC89531960D920197D9F786
:10007600E62FF72FE1CFEFEDEDBFC0E8D0E00BC0E4
:10008600E0E0F0E0FDBDECBDECB5FDB5E03DA3E084
:10009600FA07D0F30895EFEFE8BBE7BBEFE7E2BB63
:1000A600E0E0E1BBE3BFE2BFEFBDE5E0EEBDE0E0CF
:1000B600EDBDECBDEBBDEABDEBBFE5BFE9BFE0E8DA
:1000C600E8B9809B08C000E8003021F00DD0069505
:1000D600D7DFFACF07C001E0003021F005D0000FCE
:1000E600CFDFFACFEECFFFCFEFEFE027E8BB0895E3
:00000001FF
