:0C00000013C0FECFFDCFFCCFFBCFFACF2A
:10000C00F9CFF8CFF7CFF6CFF5CFF4CFF3CFF2CFC0
:10001C00F1CFF0CFEFCFEECFEDCF0000F894EE277D
:10002C00ECBBE5BFF8E1A4B7A77FA4BFF1BDE1BD70
:10003C008DE0A2E0ED938A95E9F780E8A0E6ED93D8
:10004C008A95E9F7E6E2F0E085919591009761F0E9
:10005C00A591B59105901590BF01F00105900D92F9
:10006C000197E1F7FB01F0CFE0E0E3BBE0E0E4BB9C
:10007C00E0E0E5BBEFEDEDBFC0E8D0E00BC0E0E0A9
:10008C00F0E0FDBDECBDECB5FDB5EC30A3E0FA073E
:10009C00D0F30895E0E835D034D0EBBBE0E0EABB18
:1000AC00EFEFE8BBE7BBEFE7E2BBE0E0E1BBE0BFB3
:1000BC00E3BFE2BFE6BFECBFEFBDE5E0EEBDE0E0C5
:1000CC00EDBDECBDE5BDE4BDEBBDEABDE9BDE8BDF4
:1000DC00EBBFE5BFE9BFEDB9E0E8E8B9809B08C02C
:1000EC0000E8003021F010D00695C9DFFACF07C028
:1000FC0001E0003021F008D0000FC1DFFACFEECFC5
:10010C00FFCFE6BDE0E00895EFEFE027E8BB0895F0
:00000001FF
